:10000000FFCF84E091E08150914020E0E1E0F1E019
:10001000422F50E04817590720F410822F5F319685
:10002000F7CF81E091E08050914020E0A2E6B3E07C
:10003000E0E0F1E0422F50E04817590730F43C91DE
:1000400030832F5F11963196F5CF0E947101FFCF5B
:10005000FC018081982F9871983029F4982F97701F
:10006000973091F43BC0903139F4282F277030E05D
:10007000253031054CF032C0983131F4282F2770EB
:1000800030E02430310554F5E82FE695E695E69505
:10009000E3706130710569F493E0E99FF001112488
:1000A00094A1877001C0660F8A95EAF7692B64A353
:1000B00012C063E0E69FF001112444A1877021E0A3
:1000C00030E0B90102C0660F771F8A95E2F7CB01D5
:1000D0008095842384A380E090E0089581E090E0FF
:1000E0000895FC018081982F9871983029F4982FF9
:1000F0009770973091F43BC0903139F4282F2770D6
:1001000030E0253031054CF032C0983131F4282FE1
:10011000277030E02430310554F5E82FE695E69558
:10012000E695E3706130710569F493E0E99FF001B1
:10013000112495A1877001C0660F8A95EAF7692B93
:1001400065A312C063E0E69FF001112445A187700A
:1001500021E030E0B90102C0660F771F8A95E2F70F
:10016000CB018095842385A380E090E0089581E011
:1001700090E00895FC018081982F9871983029F4BF
:10018000982F9770973091F42AC0903139F4282F26
:10019000277030E0253031054CF021C0983131F422
:1001A000282F277030E024303105CCF4E82FE69575
:1001B000E695E695E37063E0E69FF001112443A124
:1001C000877021E030E0B90102C0660F771F8A9581
:1001D000E2F7CB01842B83A380E090E0089581E0D7
:1001E00090E00895FC018081982F9871983029F44F
:1001F000982F9770973091F42CC0903139F4282FB4
:10020000277030E0253031054CF023C0983131F4AF
:10021000282F277030E024303105DCF4E82FE695F4
:10022000E695E695E37043E0E49FF001112423A1F5
:1002300030E08770F90102C0F595E7958A95E2F7FD
:10024000CF0181709927FB019183808380E090E04A
:10025000089581E090E00895CF93DF93FC016081E1
:10026000262F2871283029F4262F2770273091F463
:1002700023C0203139F4262F277030E02530310596
:100280004CF01AC0283131F4262F277030E024308A
:10029000310594F4EC0166FB662760F970E00E947A
:1002A0002800688165FB662760F970E0CE010E9436
:1002B000710080E090E002C081E090E0DF91CF919A
:1002C00008959C01220F331F820F931FFC0164A32A
:1002D00008959C01220F331F820F931FFC0165A319
:0202E00008957F
:1002E20083E091E00E942C0180E091E00E942C01C9
:1002F20061E071E083E091E00E94F20080910101EF
:1003020090910201019719F461E070E002C060E08F
:0C03120070E080E091E00E947100EACFF2
:10031E0001000000000000000000000000000000CE
:10032E0000000000000000000000000000000000BF
:10033E0000000000000000000000000000000000AF
:10034E00000000000000000000000000000000009F
:04035E00000000009B
:010362004159
:00000001FF
