:1000000023002200220022002200220022002200DF
:1000100022002200220022002200220022002200D0
:1000200022002200220022002200220022002200C0
:1000300022002200220022002200220022002200B0
:1000400022002200FFCF82E091E08250914020E028
:10005000E2E0F1E0422F50E04817590720F4108207
:100060002F5F3196F7CF82E091E08050914020E001
:10007000A8EBB7E0E0E0F1E0422F50E04817590765
:1000800030F43C9130832F5F11963196F5CF0E946A
:10009000A403FFCFFC018081982F9871983029F438
:1000A000982F9770973091F43BC0903139F4282FF6
:1000B000277030E0253031054CF032C0983131F4F2
:1000C000282F277030E02430310554F5E82FE695CD
:1000D000E695E695E3706130710569F493E0E99F78
:1000E000F001112494A1877001C0660F8A95EAF788
:1000F000692B64A312C063E0E69FF001112444A1C0
:10010000877021E030E0B90102C0660F771F8A9541
:10011000E2F7CB018095842384A380E090E00895EA
:1001200081E090E00895FC018081982F98719830CB
:1001300029F4982F9770973091F43BC0903139F49F
:10014000282F277030E0253031054CF032C098312F
:1001500031F4282F277030E02430310554F5E82F92
:10016000E695E695E695E3706130710569F493E0F4
:10017000E99FF001112495A1877001C0660F8A954F
:10018000EAF7692B65A312C063E0E69FF001112432
:1001900045A1877021E030E0B90102C0660F771FEA
:1001A0008A95E2F7CB018095842385A380E090E0D7
:1001B000089581E090E00895FC018081982F987166
:1001C000983029F4982F9770973091F42AC0903185
:1001D00039F4282F277030E0253031054CF021C04C
:1001E000983131F4282F277030E024303105CCF4D9
:1001F000E82FE695E695E695E37063E0E69FF0016B
:10020000112443A1877021E030E0B90102C0660FDC
:10021000771F8A95E2F7CB01842B83A380E090E0DF
:10022000089581E090E00895FC018081982F9871F5
:10023000983029F4982F9770973091F42CC0903112
:1002400039F4282F277030E0253031054CF023C0D9
:10025000983131F4282F277030E024303105DCF458
:10026000E82FE695E695E695E37043E0E49FF0011C
:10027000112423A130E08770F90102C0F595E795BC
:100280008A95E2F7CF0181709927FB0191838083E2
:1002900080E090E0089581E090E00895CF93DF93AF
:1002A000FC016081262F2871283029F4262F277021
:1002B000273091F423C0203139F4262F277030E005
:1002C000253031054CF01AC0283131F4262F277023
:1002D00030E02430310594F4EC0166FB662760F9C8
:1002E00070E00E944A00688165FB662760F970E053
:1002F000CE010E94930080E090E002C081E090E097
:10030000DF91CF9108959C01220F331F820F931F1D
:10031000FC0164A308959C01220F331F820F931FD9
:10032000FC0165A30895CF93DF93EC01892B09F4B9
:1003300018C1988194FB882780F997FD3FC0909160
:10034000C2008295880F880F807C892B8093C20021
:10035000888186FD04C08091C100886003C08091BF
:10036000C10080618093C1008091C200998195FB9A
:10037000442740F950E023E0440F551F2A95E1F748
:10038000482B4093C2002091C20099819295969586
:100390009695937030E1939FC0011124822B809336
:1003A000C200888183FD04C08091C2008E7F03C09B
:1003B0008091C20081608093C2003AC09091CA00CF
:1003C000892B8093CA00888186FD04C08091C90072
:1003D000886003C08091C90080618093C9008091CA
:1003E000CA00998195FB222720F930E093E0220F83
:1003F000331F9A95E1F7282B2093CA002091CA0059
:100400009981929596959695937030E1939FC0014E
:100410001124822B8093CA00888183FD04C08091BF
:10042000CA008E7F03C08091CA0081608093CA0099
:100430008981282F26952F7080FD02C080E101C0A0
:1004400088E0289F90011124032E000C440B550BCB
:1004500060E074E284EF90E00E94AF032150310924
:100460008881807A29F43093C5002093C40006C0A7
:10047000803821F43093CD002093CC00888187FD13
:1004800039C08091C200897F8093C2008091C100F1
:100490008B7F8093C100888187708230E1F048F4BF
:1004A0008823A9F0813009F05FC08091C20082608A
:1004B00019C08330A1F0843009F056C08091C20089
:1004C00086608093C2008091C100846010C08091DA
:1004D000C200897F07C08091C200846003C0809100
:1004E000C20086608093C2008091C1008B7F8093A0
:1004F000C1003AC08091CA00897F8093CA00809170
:10050000C9008B7F8093C900888187708230D1F0C9
:1005100040F4882399F0813039F58091CA008260D7
:1005200018C0833099F08430F9F48091CA00866055
:100530008093CA008091C900846010C08091CA0075
:10054000897F07C08091CA00846003C08091CA007F
:1005500086608093CA008091C9008B7F8093C90018
:1005600003C081E090E002C080E090E0DF91CF9195
:100570000895009721F1FC01808187FD0FC0109242
:10058000C1001092C5001092C4001092C0001092D9
:10059000C1001092C2001092C6000EC01092C90095
:1005A0001092CD001092CC001092C8001092C90099
:1005B0001092CA001092CE0080E090E0089581E091
:1005C00090E00895009771F1FC019081892F877068
:1005D00097FD15C0843051F49091C1009B012227F2
:1005E0003270832F8695892B8093C1006093C6005B
:1005F0008091C00086FFFCCF80E090E008958430B9
:1006000051F49091C9009B0122273270832F869567
:10061000892B8093C9006093CE008091C80086FF2B
:10062000FCCFEACF81E090E00895009731F1FC0122
:100630009081892F877097FD0FC0843051F490917D
:10064000C1009B0122273270832F8695892B8093CE
:10065000C1006093C6000EC0843051F49091C9006F
:100660009B0122273270832F8695892B8093C900A6
:100670006093CE0080E090E0089581E090E00895DE
:10068000FB0111821082009749F1DC018C9187FDFA
:100690000FC09091C00097FFFCCF8770843029F481
:1006A0008091C1008270108281832091C6000EC0AB
:1006B0009091C80097FFFCCF8770843029F4809117
:1006C000C9008270108281832091CE008081918147
:1006D000822B9183808380E090E0089581E090E018
:1006E0000895FB01009769F1DC013C91232F2770ED
:1006F0008081918137FD0FC0243051F42091C100D9
:10070000227030E0322F2227822B932B918380831B
:100710002091C6000EC0243051F42091C9002270EF
:1007200030E0322F2227822B932B918380832091DC
:10073000CE0080819181822B9183808380E090E044
:10074000089581E090E0089580E091E00E94930197
:1007500068E470E080E091E00E94E202FFCFA1E255
:100760001A2EAA1BBB1BFD010DC0AA1FBB1FEE1F2B
:10077000FF1FA217B307E407F50720F0A21BB30B76
:10078000E40BF50B661F771F881F991F1A9469F7F2
:1007900060957095809590959B01AC01BD01CF014E
:0207A0000895BA
:1007A20011E0A0E0B1E0E8EBF7E002C005900D92A5
:0607B200A230B107D9F7E7
:0207B8000BC470
:00000001FF
